:020000040800F2
:100000004807002029020008B50F0008E104000895
:10001000B10F0008D9020008D7180008000000003E
:100020000000000000000000000000002F16000883
:10003000DD020008000000005113000885170008C9
:10004000430200084302000843020008430200087C
:10005000430200084302000843020008430200086C
:10006000430200084302000843020008430200085C
:10007000430200084302000843020008430200084C
:10008000430200084302000843020008430200083C
:100090004302000843020008430200082D03000841
:1000A000430200084302000843020008430200081C
:1000B000430200084302000843020008430200080C
:1000C00043020008430200084302000843020008FC
:1000D000430200084302000843020008F117000829
:1000E00043020008430200084302000843020008DC
:1000F00043020008430200084302000843020008CC
:1001000043020008430200084302000843020008BB
:1001100043020008430200084302000843020008AB
:10012000430200084302000843020008430200089B
:10013000430200084302000843020008430200088B
:10014000430200084302000843020008430200087B
:10015000430200084302000843020008430200086B
:10016000430200084302000843020008430200085B
:10017000430200084302000843020008430200084B
:10018000430200084302000800F002F800F03CF8C7
:100190000AA090E8000C82448344AAF10107DA45E2
:1001A00001D100F031F8AFF2090EBAE80F0013F0F8
:1001B000010F18BFFB1A43F001031847C0340000B9
:1001C000E0340000103A24BF78C878C1FAD852074A
:1001D00024BF30C830C144BF04680C6070470000C1
:1001E0000023002400250026103A28BF78C1FBD840
:1001F000520728BF30C148BF0B6070471FB501F0E0
:10020000ACFD1FBD10B510BD00F033F81146FFF76F
:10021000F5FF01F03FFC00F051F803B4FFF7F2FFE7
:1002200003BC01F05AFB0000094880470948004719
:10023000FEE7FEE7FEE7FEE7FEE7FEE7FEE7FEE796
:10024000FEE7FEE704480549054A064B70470000F3
:10025000891700088901000848010020480700208C
:1002600048030020480300207047704770477047DC
:100270007047754600F02CF8AE46050069465346B7
:1002800020F00700854618B020B5FFF7DBFFBDE87A
:1002900020404FF000064FF000074FF000084FF0ED
:1002A000000B21F00701AC46ACE8C009ACE8C0097E
:1002B000ACE8C009ACE8C0098D46704710B50446EB
:1002C000AFF300802046BDE81040FFF7A6BF000056
:1002D00000487047E800002000BFFEE770470EB5F9
:1002E0000121880301F046F80721012001F0A0F95F
:1002F0008020019000208DF8080008208DF809006A
:1003000001208DF80A0001A800F054F817208DF89C
:10031000000000208DF801008DF8020001208DF80A
:100320000300684600F048FE0EBD000010B58020B6
:1003300000F034F8012820D11248007802281CDA95
:100340001048007850B900200F49086001200F497B
:10035000C1F8B4020C49091F086009E000200A49ED
:10036000091F08600949C1F8B40201200649086064
:1003700004480078401C03490870802000F008F809
:1003800010BD000004000020B482404200804042C2
:100390000149086070470000143C014001460020FC
:1003A000034A12680A400AB1012000E000207047A9
:1003B000143C0140002123498279002A3AD00A46A0
:1003C000126803689A430B461A600A1D1268036894
:1003D0009A430B1D1A60027911440A6803681A4394
:1003E0000A60184A0832126803689A43154B0833AA
:1003F0001A601A1D126803689A43124B0C331A6074
:100400004279102A0ED11A1F126803681A430D4B45
:1004100008331A601A1D126803681A43094B0C331B
:100420001A600DE00749427911440A6803681A43CB
:100430000A6005E0027911440A6803689A430A6079
:1004400070470000003C0140F0B50A46002100233F
:10045000002400BF3DE0012505FA01F3156805EA17
:1004600003049C4234D105684F000326BE40B543C7
:10047000056015794E00B54006683543056015796D
:10048000012D02D01579022D16D185684F00032663
:10049000BE40B543856055794E00B540866835430A
:1004A0008560456801268E40B5434560456896796C
:1004B0008E40B6B235434560C5684F000326BE4046
:1004C000B543C560D5794E00B540C6683543C560B3
:1004D000491C1029BFD3F0BD0146086980B270479E
:1004E00000BFFEE770B5064600240948058840882D
:1004F00045430021084600F0CFFB00F047FD00BF58
:1005000003E0304600F0D8FC641CAC42F9D370BD67
:100510001400002010B504460CBB00201F49887150
:10052000F02008804FF4A07048800846808849F287
:10053000413188420BD01948808846F60401884230
:1005400005D01648808845F21031884222D12C20EF
:100550001249C8712A2008812B2048811AE0012005
:100560000E4988714FF4A0700880F020488008463A
:10057000808849F24131884205D00848808845F298
:100580001031884206D12C200449C8712A200881E4
:100590002B204881002000F03BFA10BD1400002001
:1005A00070B504460D4616462048808849F2413110
:1005B000884205D01D48808845F21031884213D109
:1005C0001A49087A00F08EFC201200F053FCE0B2C9
:1005D00000F050FC1549887A00F084FC281200F0E5
:1005E00049FCE8B200F046FC0020114908601149BE
:1005F000C1F8B8021048406920F4FF600E49486114
:10060000084640690949C97940EAC1000A49486178
:1006100000200749091D08600120086004490C31C9
:100620000860304600F048FC70BD00001400002057
:10063000AC02424200004242001002402DE9F04F5D
:1006400005460E4617469846DDF824A04FF0000BED
:10065000781B401C1FFA80FB344613E021462846D5
:1006600000F01AFB00F092FC4FF0000906E0504643
:1006700000F022FC09F101001FFA80F9D945F6DBF0
:10068000601C84B24445E9DDBDE8F08F1CB54FF431
:10069000FF60009000208DF8040002208DF8050016
:1006A00001208DF8070069460148FFF7CDFE1CBD0B
:1006B000001002401CB50121102000F04BFE4FF647
:1006C000FF70009001208DF8040000208DF80600D6
:1006D00002208DF805006946A748FFF7B5FE3220D5
:1006E00001F070F90120A5490860A549C1F8B402DC
:1006F000A249083908600020A149C1F8BC021420B1
:1007000001F060F901209D49091D0860142001F0E5
:1007100059F9322001F056F90121002000F03EFC89
:10072000322001F04FF901F003FB9649888008461A
:10073000808849F2413188427ED1CF2000F0D2FB3F
:10074000002000F097FBC12000F094FB302000F067
:1007500091FBED2000F0C6FB642000F08BFB032032
:1007600000F088FB122000F085FB812000F082FB66
:10077000E82000F0B7FB852000F07CFB102000F0A3
:1007800079FB7A2000F076FBCB2000F0ABFB392020
:1007900000F070FB2C2000F06DFB002000F06AFBE5
:1007A000342000F067FB022000F064FBF72000F02B
:1007B00099FB202000F05EFBEA2000F093FB002074
:1007C00000F058FB002000F055FBC02000F08AFB31
:1007D0001B2000F04FFBC12000F084FB012000F043
:1007E00049FBC52000F07EFB302000F043FB3020A9
:1007F00000F040FBC72000F075FBB72000F03AFB8B
:10080000362000F06FFB482000F034FB3A2000F067
:1008100069FB552000F02EFBB12000F063FB0020A7
:1008200000F028FB1A2000F025FBB62000F05AFB50
:100830000A2000F01FFB00E095E0A22000F01AFB68
:10084000F22000F04FFB002000F014FB262000F007
:1008500049FB012000F00EFBE02000F043FB0F20DD
:1008600000F008FB2A2000F005FB282000F002FB26
:10087000082000F0FFFA0E2000F0FCFA082000F03B
:10088000F9FA542000F0F6FAA92000F0F3FA432018
:1008900000F0F0FA0A2000F0EDFA0F2000F0EAFA7A
:1008A000002000F0E7FA002000F0E4FA002000F059
:1008B000E1FA002000F0DEFAE12000F013FB002056
:1008C00000F0D8FA152000F0D5FA172000F0D2FA7F
:1008D000072000F0CFFA112000F0CCFA062000F03B
:1008E000C9FA2B2000F0C6FA562000F0C3FA3C20CB
:1008F00000F0C0FA052000F0BDFA102000F0BAFAAE
:100900000F2000F0B7FA3F2000F0B4FA3F2000F0CB
:10091000B1FA0F2000F0AEFA2B2000F0E3FA00202D
:1009200000F0A8FA002000F0A5FA012000F0A2FAD9
:100930003F2000F09FFA2A2000F0D4FA002000F0B7
:1009400099FA002000F096FA002000F093FAEF20C8
:1009500000F090FA112000F0C5FA782001F032F88A
:10096000292000F0BFFA0020FFF7D4FD4FF6FF70FA
:10097000FFF7B8FD1CBD000000100240B802424263
:1009800000004242140000201CB54FF4FF600090AC
:1009900001208DF8040000208DF8060002208DF85B
:1009A000050001208DF8070069460248FFF74CFD5D
:1009B0001CBD00000010024010B5FFF767FE0120CB
:1009C0000F49086000200F49C1F8B802C1F8B4020D
:1009D0000D48808848F68911884202D1022001F032
:1009E0000DF80A480069C0F3C70401200449083122
:1009F00008600449C1F8B802FFF7C6FF204610BDE1
:100A0000AC024242000042421400002000100240AA
:100A1000F0B50546002400279E48808849F2413100
:100A2000884217D09B48808846F60401884211D03E
:100A30009848808845F2103188420BD095488088CC
:100A400045F21051884205D09248808841F66311E2
:100A500088427DD1082D1CD2DFE805F00406090C80
:100A60000F12151800BF14E044F0800411E044F0A8
:100A700040040EE044F0C0040BE044F0200408E021
:100A800044F0600405E044F0A00402E044F0E00417
:100A900000BF00BF7F48808845F21051884202D1D4
:100AA0004FF4585700E036277A48808845F21031D5
:100AB00088420DD07748808845F21051884207D08F
:100AC0007448808841F66311884201D044F00804DC
:100AD0007048808846F60401884201D144F002043F
:100AE000E1B2F8B200F05AFA6A48808841F6631120
:100AF00088421DD004F0200068B16648008865492E
:100B00004988884214DA6348068840886149088029
:100B1000084646800CE05F4800885E494988884264
:100B200006DD5C48068840885A49088008464680A9
:100B30005848808845F21051884254D15549087A66
:100B400000F0D0F9002000F095F95249097A00E050
:100B500078E0491CC8B200F0C5F9002000F08AF91D
:100B60004C49097A891CC8B200F0BCF94949098886
:100B7000491EC1F3072000F07DF94649097AC91CD6
:100B8000C8B200F0AFF943490978491EC8B200F075
:100B900071F94049887A00F0A5F9002000F06AF95F
:100BA0003C49897A491CC8B200F09CF9002000F049
:100BB00061F93849897A891CC8B200F093F935493E
:100BC0004988491EC1F3072000F054F93149897A58
:100BD000C91CC8B200F086F92E498978491EC8B2EE
:100BE00000F048F955E02B49087A00F07BF9002025
:100BF00000F040F9002000F03DF926490988491E1F
:100C0000C1F3072000F036F922490978491EC8B21D
:100C100000F030F91F49887A00F064F9002000F0F4
:100C200029F9002000F026F91A494988491EC1F324
:100C3000072000F01FF917498978491EC8B200F053
:100C400019F926E0082D1CD2DFE805F004070A0D8B
:100C50000F12151844F0300413E044F0100410E0B3
:100C600044F020040DE000BF0BE044F0380408E03D
:100C700044F0280405E044F0180402E044F00804BD
:100C800000BF00BF032744F48054E1B2384600F0AF
:100C900085F9F0BD1400002010B503460C4610483D
:100CA000808849F24131884205D00D48808845F25C
:100CB0001031884213D10A49087A00F013F918124A
:100CC00000F0D8F8D8B200F0D5F80549887A00F0DD
:100CD00009F9201200F0CEF8E0B200F0CBF810BD18
:100CE000140000202DE9F84F80460E4617461C469A
:100CF000B3462046E31704EB5373DB1021464FEA5B
:100D0000E47C04EB5C7C4FEAEC0CA4EBCC0CBCF177
:100D1000000F02D04FF0010C01E04FF0000C6344D3
:100D2000224604EBD27C4FEA6C0C03FB0CF3DBB2E3
:100D30000093A7F12000C7B2002556E00C2C07D184
:100D400007EB47002B4901EB800010F8059013E0FA
:100D5000102C05D1284800EB071010F805900BE087
:100D6000182C07D107EBC700244901EB800010F8CD
:100D7000059001E0BDE8F88F4FF0000A2FE009F080
:100D8000800030B11E48028831464046FFF708FC1B
:100D900007E00A9828B91B48028831464046FFF709
:100DA000FFFB4FEA49604FEA1069701C86B2164893
:100DB0004088B04200DCDDE7A6EB0B00A0420AD180
:100DC0005E4608F101001FFA80F80F480088404590
:100DD00000DCCFE706E00AF1010000F0FF0ABAF1FB
:100DE000080FCCDB00BF681CC5B200988542A5DBAC
:100DF00000BFBFE7641D0008D8210008C82700080D
:100E00000000002002000020140000202DE9F84717
:100E100004460D4690469946DDE9096704F0FF0A4D
:100E200008EB04001FFA80F809EB05001FFA80F9AF
:100E300016E0444502DB5446A81985B24D4500DB57
:100E400014E0002000903A78334629462046FFF708
:100E500049FF304606EBD07104EB61018CB27F1C78
:100E600038787E2802DC38782028E2DA00BFBDE836
:100E7000F887000001210D4A116000210C4AC2F8D8
:100E8000B8120C49496921F4FF610A4A51611146BF
:100E9000496941EAC00151610021044A121D1160F3
:100EA00001211160014A0C3211607047AC024242CC
:100EB000000042420010024010B5044601200749DC
:100EC000086000200649C1F8B802E1B2201200F023
:100ED0002BF8012001490C31086010BDAC024242E0
:100EE0000000424200210D4A11600D4AC2F8B812BA
:100EF0000C49496921F4FF610A4A51611146496967
:100F000041EAC00151610021044A121D1160012112
:100F10001160024A0C32116070470000AC0242427C
:100F20000000424200100240124A526922F4FF625D
:100F3000104B5A611A46526942EAC0025A610022B5
:100F40000D4B1A6001220D4BC3F8B022094A5269B9
:100F500022F4FF62074B5A611A46526942EAC10203
:100F60005A610022044B1A600122044BC3F8B022DC
:100F70007047000000100240B002424200004242AE
:100F800010B504462046FFF797FF10BD00B5024993
:100F9000C879FFF7A7FF00BD1400002010B5044674
:100FA0000B462046FFF79EFF1846FFF763FF10BD74
:100FB00000BFFEE77047000070B5002100230F223C
:100FC000C4781CB3174C246804F4E064C4F5E064EE
:100FD000C4F30721C1F10404E3B20A4144789C4000
:100FE000E1B28478144021430C07210E0E4C0578A1
:100FF0006155047804F01F050124AC4005786D119B
:10100000AD0005F1E025C5F8004109E0047804F0E1
:101010001F050124AC40054D0678761145F82640A1
:1010200070BD00000CED00E000E400E080E100E0B5
:1010300002490143024A1160704700000000FA05AE
:101040000CED00E070B50446002534B1012C06D04B
:10105000032C06D0042C08D105E0B02505E0982526
:1010600003E0182501E0302500BF00BF29465520C8
:1010700000F0BEFA70BD2DE9F0410446802522261D
:101080005E2734B1012C08D0032C0AD0042C10D1D7
:101090000BE0402511262F270BE066251B264B274A
:1010A00007E099252826712703E0C02533268D27E0
:1010B00000BF00BF29464F2000F09AFA2946502071
:1010C00000F096FA0021512000F092FA31465220A9
:1010D00000F08EFA3946532000F08AFA294654204F
:1010E00000F086FA9E21582000F082FABDE8F081D7
:1010F00070B50446402534B1012C06D0032C06D02F
:10110000042C08D105E0302505E0382503E0502502
:1011100001E0602500BF00BF2946562000F068FAB4
:1011200070BD00007CB5002501210A2000F012F9F5
:101130008020009001208DF8070002208DF8050026
:1011400000208DF8040069462A48FFF77DF94FF426
:10115000F240009001208DF8040000208DF8060078
:1011600002208DF8050001208DF80700694621480E
:10117000FFF76AF940F60F70009000208DF8040028
:1011800002208DF8050001208DF8070069461A48F5
:10119000FFF75AF900F0FEF88021122000F028FA3B
:1011A00008B101207CBD322000F00CFC0B2000F0C7
:1011B0006FF90446732C01D00220F3E70A2000F0F7
:1011C00067F90446762C01D00220EBE700250DE0FC
:1011D0000A4A02EB45025178084A12F8150000F05D
:1011E00007FA022000F0EEFB681C85B2552DEFD304
:1011F0000020D7E700040240000C0240243500081C
:101200002DE9F0410446E72500260027012C06D0F1
:10121000022C08D0032C0AD0042C10D10BE0E525B9
:101220005A265C270BE0E5255826602707E0E525D0
:1012300084264C2703E0E5259626402700BF00BF03
:101240002946132000F0D4F93146012000F0D0F9EE
:101250003946022000F0CCF9BDE8F0812DE9F041DB
:1012600004460425C0268027072C1DD2DFE804F0A1
:101270001C04080C1014180024258026802713E075
:101280001425802680270FE01425C02680270BE038
:1012900014254026402707E014258026C02703E0B8
:1012A0001425A026402700BF00BF29463A2000F0A1
:1012B0009FF93146682000F09BF93946672000F01D
:1012C00097F9BDE8F0812DE9F04705460E469046B6
:1012D000994605EB48001FFA80FA06EB490087B2F1
:1012E000B7F5447F02DDA7F5447087B2032000F014
:1012F000CFF8044604F0F0040AF00301284661F335
:101300009F0004432146032000F072F9C5F38701D2
:10131000192000F06DF9CAF387011A2000F068F96E
:10132000322000F0B5F8044604F0C00407F00701CD
:10133000304661F3DF000443C6F3C701172000F015
:1013400057F9C7F3C701182000F052F9BDE8F0873C
:101350007047000029B1064A12680243044B1A6024
:1013600004E0034A12688243014B1A607047000090
:101370003038024029B1064A12680243044B1A6011
:1013800004E0034A12688243014B1A607047000070
:10139000443802401CB501210220FFF7DBFF30205A
:1013A000009001208DF8040000208DF80600022036
:1013B0008DF8050001208DF8070069460748FFF702
:1013C00043F80648006820F4406004490860084675
:1013D000006840F4806008601CBD0000000402400A
:1013E00010B5322000F00AFB01200B4908600B49C0
:1013F000C1F89002322000F001FB00200649091FCD
:101400000860322000F0FAFA00200449C1F8940282
:10141000322000F0F3FA10BD948240420080404236
:1014200070B500241748006820F440601549086032
:10143000084600680860082515E0322000F0DEFA52
:101440000120114908606006040E1048D0F814020B
:1014500008B1601CC4B2322000F0D0FA00200A4962
:101460000860681EC5B2002DE7DC0648006820F45D
:101470004060044908600846006840F480600860E5
:10148000204670BD000402409082404200804042ED
:1014900070B50446002500F023F8422000F054F80F
:1014A000642000F0ABFA204600F04EF8642000F013
:1014B000A5FA00F02FF8642000F0A0FA00F010F870
:1014C000432000F041F8642000F098FAFFF7A8FFED
:1014D0000546FFF785FF00F01DF8284670BD0000A7
:1014E00010B50120094908600949C1F8900232206D
:1014F00000F084FA002005490860322000F07EFAEE
:1015000000200349C1F8900210BD000094824042BF
:101510000080404210B5002009490860322000F0E8
:101520006DFA01200749C1F89002322000F066FAF6
:10153000012003490860322000F060FA10BD00006D
:10154000948240420080404270B5044600261BE071
:1015500004F0800018B101202249086002E0002058
:10156000204908606006040E322000F047FA01208E
:101570001C49091F0860322000F040FA00201A4977
:10158000C1F89002701CC6B2082EE1DB1748006853
:1015900020F4406015490860084600680860322061
:1015A00000F02CFA01200F49091F0860322000F0DA
:1015B00025FA0D48D0F8140208B1012500E00025F5
:1015C00000200849091F08600848006820F44060AE
:1015D000064908600846006840F4806008602846B4
:1015E00070BD0000948240420080404200040240EE
:1015F00070B505460C460026FFF772FF4220FFF744
:10160000A3FF00B10126642000F0F8F92846FFF797
:101610009BFF00B10126642000F0F0F92046FFF79F
:1016200093FF00B10126FFF775FF304670BD70478C
:1016300030B500228B071C0F0F2303FA04F20B4B6B
:101640008C1053F824309343084C8D1044F8253007
:1016500023468C1053F824308C07240F00FA04F42E
:101660002343024C8D1044F8253030BD083801402A
:101670000CB50020019000903448006840F48030A0
:101680003249086000BF3148006800F40030009023
:101690000198401C0190009818B90198B0F5A04F2E
:1016A000F1D12A48006800F4003010B10120009008
:1016B00001E0002000900098012846D123484030E6
:1016C000006840F08050214940310860204800689F
:1016D00040F440401E4908601C48083000681B491F
:1016E000083108600846006840F400400860084679
:1016F000006840F4A05008601648091F0860081FE1
:10170000006840F08070091F086000BF0F48006843
:1017100000F000700028F9D040F205700E49086012
:101720000A480830006820F00300084908310860C2
:101730000846006840F00200086000BF0348083017
:10174000006800F00C000828F8D10CBD00380240F9
:101750000070004008544007003C0240042808D1B3
:101760004FF0E021096941F004014FF0E0221161DE
:1017700007E04FF0E021096921F004014FF0E02279
:10178000116170477047000010B51548006840F4BB
:101790007000134908601348006840F001001149C7
:1017A000086000200F49083108600E4800680E49A3
:1017B00008400C4908600D48091D0860081F0068B2
:1017C00020F48020091F0860002006490C310860C1
:1017D000FFF74EFF4FF0006001498039086010BDEF
:1017E00088ED00E000380240FFFFF6FE10300024D4
:1017F00010B540F225511D4800F03EF810B31B48CB
:1018000000F064F8C4B21A48008800F40040C8B977
:101810001748008800F4804060B10A2C03D00020F3
:101820001349088020E01248008840F40040104925
:10183000088019E00D2C06D10D48008840F4804046
:101840000B49088010E00A480088C0F30D000949E0
:101850000C5407480088401C054908800846008849
:10186000C72801DD0020088010BD000000480040AE
:10187000100000202000002070B502460024002344
:101880000025002040F66A16B14200D100BFC1F326
:10189000421501F01F03012606FA03F3012D02D1C0
:1018A0009689334006E0022D02D1168A334001E0CA
:1018B000968A33400C12012606FA04F41688344046
:1018C00013B10CB1012000E0002070BD01468888F2
:1018D000C0F30800704700BFFEE700BF704700007C
:1018E00070B526480078022846D10420FFF790F80A
:1018F00000210846FFF7D0F9FFF748FB00202049F8
:1019000008602049C1F8B80201201D49183108605B
:101910000020086001201A4908601A49C1F8B8027D
:1019200000241DE0002016491831086000F0F0F98D
:10193000054601201349C1F8B8024FF6FF7000EACE
:10194000052500200E491831086000F0E1F9054333
:1019500001200C49C1F8B8022846FFF711FB641CAE
:10196000B4F5963FDED34FF48070FEF711FD0020F2
:1019700002490870FFF74CF870BD00000400002019
:10198000A08240420080404210B504466FF004003F
:10199000FFF7E4FEE11704EB5171C1F3C701074AF9
:1019A00011701046007800EB4001C1EBC0104FF6FB
:1019B000FF7101EAC0000249088010BD0600002046
:1019C0000800002070B504464FF4077094FBF0F057
:1019D000C6B24FF4077094FBF0F100FB114085B2E2
:1019E00005E04FF4077000F02FF8701EC6B2002E0D
:1019F000F7D115B1284600F027F870BD0146114A0D
:101A000012784A434FF0E0235A6100229A611A4645
:101A1000126942F001021A6100BF4FF0E022106922
:101A200000F001021AB100F48032002AF5D04FF024
:101A3000E022126922F001024FF0E0231A61002235
:101A40009A617047060000200146114A12884A43F5
:101A50004FF0E0235A6100229A611A46126942F05F
:101A600001021A6100BF4FF0E022106900F001028C
:101A70001AB100F48032002AF5D04FF0E02212694A
:101A800022F001024FF0E0231A6100229A617047B0
:101A9000080000201CB50024022502260227A046CB
:101AA00000BF00BFA820FFF76FFF4FF4A060FFF753
:101AB000BFFAFEF7FFFD6548808846F604018842BC
:101AC0000BD06248808845F21031884205D05F48CB
:101AD000808845F21051884205D1F0205B4908808A
:101AE0004FF4A07048804FF478405949088059A0BD
:101AF00010210B46C822CDE9001032213C20FFF70F
:101B000085F958A010210B46C822CDE900104621C6
:101B10003C20FFF77BF956A010210B46C822CDE9E7
:101B200000105A213C20FFF771F955A010210B46F7
:101B3000C822CDE900106E213C20FFF767F953A0C1
:101B400010210B46C822CDE9001082213C20FFF76E
:101B50005DF952A010210B46C822CDE90010962154
:101B60003C20FFF753F951A010210B46C822CDE9C4
:101B70000010AA213C20FFF749F950A010210B4684
:101B8000C822CDE90010BE213C20FFF73FF94FA04D
:101B900010210B46C822CDE90010D2213C20FFF7CE
:101BA00035F94EA010210B46C822CDE90010E621E0
:101BB0003C20FFF72BF918E04CA010210B46C8225F
:101BC000CDE90010E6213C20FFF720F9C820FFF7FF
:101BD000F9FE4FF6FF70F623EF22E62100903C203D
:101BE000FEF72CFDC820FFF7EDFEFFF79BFA00285B
:101BF000E2D142A010210B46C822CDE90010E62117
:101C00003C20FFF703F940F2DC50FFF7DBFE2046F3
:101C1000FFF7F6FA2846FFF72EFA3046FFF712FADA
:101C20003846FFF765FA4046FFF718FBFEF757FB0B
:101C30004FF4A073F022AE210A20FFF744FB0020EE
:101C40003249086001E0FFF74BFEFCE7140000207A
:101C500000000020576172536869702053544D335F
:101C6000320000004F563736373020544553540069
:101C700041544F4D40414C49454E54454B000000A6
:101C8000323031322F392F31340000004B4559307A
:101C90003A4C69676874204D6F6465004B45593153
:101CA0003A53617475726174696F6E004B455932B5
:101CB0003A4272696768746E657373004B45595F89
:101CC00055503A436F6E74726173740054504144BE
:101CD0003A45666665637473000000004F563736F8
:101CE000373020496E69742E2E2E00004F5637363D
:101CF0003730204572726F72212100004F563736FF
:101D0000373020496E6974204F4B0000AC8240424E
:101D100070B50648FEF7E0FB054605F00F0405F434
:101D2000706006113443204670BD0000000C024074
:101D300010B50024D320FFF7D5F8FEF73DFEFEF7DF
:101D40003BFEFEF739FE04464FF6FF7000EA04241E
:101D5000FEF732FE0443204610BD4FF04070E1EE26
:101D6000100A7047000000000000000000000000A2
:101D7000000000003F4000000000000000003000B4
:101D8000400030004000000009000BC03D000BC0C7
:101D90003D00090018C024407FE02240318000004F
:101DA000180024C01B000D803240018003801C40BD
:101DB00027401C8007400040100060000000000029
:101DC000000000000000000000001F8020404020B4
:101DD0000000402020401F80000000000900060095
:101DE0001F80060009000000040004003F8004007A
:101DF000040000000010006000000000000000006F
:101E0000040004000400040004000000000000407E
:101E10000000000000000000002001C006003800A3
:101E2000400000001F802040204020401F80000014
:101E3000000010403FC000400000000018C02140DA
:101E400022402440184000001080204024402440BC
:101E50001B80000002000D0011003FC00140000087
:101E60003C80244024402440238000001F802440E4
:101E700024403440038000003000200027C0380098
:101E8000200000001B802440244024401B800000D0
:101E90001C0022C0224022401F80000000000000E1
:101EA0000840000000000000000000000460000086
:101EB00000000000000004000A00110020804040E3
:101EC0000900090009000900090000000000404065
:101ED000208011000A000400180020002340240084
:101EE000180000001F802040274029401F400000AC
:101EF000004007C039000F0001C0004020403FC033
:101F0000244024401B8000001F80204020402040AF
:101F10003080000020403FC0204020401F80000053
:101F200020403FC024402E4030C0000020403FC031
:101F300024402E00300000000F001080204022407E
:101F40003380020020403FC0040004003FC0204016
:101F5000204020403FC02040204000000060202062
:101F600020203FC02000200020403FC024400B0024
:101F700030C0204020403FC020400040004000C012
:101F80003FC03C0003C03C003FC0000020403FC0B9
:101F90000C4023003FC020001F80204020402040F4
:101FA0001F80000020403FC0244024001800000093
:101FB0001F802140214020E01FA0000020403FC0A2
:101FC0002440260019C0004018C02440244022406C
:101FD00031800000300020403FC020403000000031
:101FE00020003F80004000403F80200020003E0055
:101FF00001C0070038002000380007C03C0007C0BF
:1020000038000000204039C0060039C020400000E0
:102010002000384007C0384020000000304021C078
:102020002640384020C00000000000007FE0402033
:1020300040200000000070000C0003800040000001
:102040000000402040207FE0000000000000200051
:1020500040002000000000000010001000100010E0
:102060000010001000000000400000000000000010
:10207000000002800540054003C0004020003FC032
:10208000044004400380000000000380044004403A
:102090000640000000000380044024403FC0004090
:1020A000000003800540054003400000000004409C
:1020B0001FC0244024402000000002E005500550CD
:1020C0000650042020403FC00440040003C00040EC
:1020D0000000044027C00040000000000010001075
:1020E000041027E00000000020403FC0014007002E
:1020F00004C00440204020403FC000400040000099
:1021000007C0040007C0040003C00000044007C06B
:102110000440040003C00040000003800440044069
:1021200003800000041007F0045004400380000006
:10213000000003800440045007F00010044007C072
:102140000240040004000000000006400540054075
:1021500004C00000000004001F8004400040000094
:10216000040007800040044007C00040040007004E
:1021700004C0018006000400060001C0070001C081
:1021800006000000044006C0010006C00440000034
:102190000410071004E00180060004000000044061
:1021A00005C00640044000000000000004007BE081
:1021B00040200000000000000000FFF000000000D0
:1021C000000040207BE00400000000004000800090
:1021D000400020002000400000000000000000003F
:1021E00000000000000000000000000000001FCC04
:1021F000000C00000000000000000800300060003B
:102200000800300060000000022003FC1E200220B5
:1022100003FC1E200220000000000E1811043FFFE6
:1022200010840C78000000000F0010840F3800C0EC
:10223000077818840078000000780F8410C41124F7
:102240000E9800E400840008080068007000000098
:10225000000000000000000000000000000007E097
:102260001818200440020000000040022004181842
:1022700007E00000000000000240024001800FF073
:1022800001800240024000000080008000800FF8C2
:1022900000800080008000000001000D000E0000A2
:1022A00000000000000000000000008000800080AE
:1022B00000800080008000800000000C000C000006
:1022C0000000000000000000000000060018006090
:1022D0000180060018002000000007F00808100424
:1022E0001004080807F000000000080408041FFCA0
:1022F000000400040000000000000E0C1014102464
:10230000104411840E0C000000000C18100411047D
:10231000110412880C700000000000E00320042467
:1023200008241FFC0024000000001F9810841104E2
:102330001104108810700000000007F008881104D4
:10234000110418880070000000001C00100010FC30
:1023500013001C001000000000000E38114410840F
:10236000108411440E38000000000700088C10444F
:102370001044088807F00000000000000000030C73
:10238000030C000000000000000000000001010636
:10239000000000000000000000000080014002205A
:1023A000041008081004000002200220022002206D
:1023B000022002200220000000001004080804107F
:1023C000022001400080000000000E001200100CEE
:1023D000106C10800F00000003E00C1813E41424AC
:1023E00017C4082807D000000004003C03C41C40A8
:1023F000074000E4001C000410041FFC1104110439
:1024000011040E880070000003E00C181004100482
:10241000100410081C10000010041FFC100410040D
:102420001004080807F0000010041FFC1104110438
:1024300017C410040818000010041FFC1104110038
:1024400017C010000800000003E00C18100410046E
:1024500010441C780040000010041FFC1084008011
:10246000008010841FFC10040000100410041FFCE6
:10247000100410040000000000030001100110010E
:102480001FFE10001000000010041FFC1104038048
:102490001464181C1004000010041FFC1004000435
:1024A00000040004000C000010041FFC1F0000FCCE
:1024B0001F001FFC1004000010041FFC0C0403008C
:1024C00000E010181FFC100007F0080810041004AA
:1024D0001004080807F0000010041FFC108410808E
:1024E000108010800F00000007F00818102410243E
:1024F000101C080A07F2000010041FFC1104110050
:1025000011C011300E0C000400000E1C11041084C8
:10251000108410441C3800001800100010041FFC28
:10252000100410001800000010001FF81004000430
:10253000000410041FF8100010001E0011E0001C21
:10254000007013801C0010001FC0103C00E01F0032
:1025500000E0103C1FC000001004180C163401C02D
:1025600001C01634180C100410001C00130400FCE9
:1025700013041C00100000000804101C10641084D8
:1025800013041C04101800000000000000007FFE6F
:102590004002400240020000000030000C000380B6
:1025A0000060001C000300000000400240024002E6
:1025B0007FFE00000000000000000000200040003E
:1025C0004000400020000000000100010001000167
:1025D0000001000100010001000040004000200057
:1025E00000000000000000000000009801240144E9
:1025F0000144014400FC000410001FFC0088010499
:1026000001040088007000000000007000880104D0
:10261000010401040088000000000070008801042B
:10262000010411081FFC0004000000F801440144EB
:102630000144014400C800000000010401040FFC33
:102640001104110411001800000000D6012901290D
:10265000012901C90106000010041FFC00840100CB
:102660000100010400FC000400000104190419FC2D
:10267000000400040000000000000003000101014C
:10268000190119FE0000000010041FFC0024004086
:1026900001B4010C010400000000100410041FFC30
:1026A0000004000400000000010401FC010401001A
:1026B00001FC0104010000FC010401FC0084010094
:1026C0000100010400FC0004000000F80104010402
:1026D0000104010400F80000010101FF008501046C
:1026E00001040088007000000000007000880104F0
:1026F0000104010501FF00010104010401FC008443
:102700000104010001800000000000CC012401242C
:10271000012401240198000000000100010007F8D5
:102720000104010400000000010001F8000400049D
:102730000004010801FC0004010001800170000C8C
:10274000001001600180010001F0010C003001C0A7
:102750000030010C01F0010000000104018C007444
:102760000170018C01040000010101810171000E62
:10277000001801600180010000000184010C013497
:1027800001440184010C0000000000000000000072
:1027900001003EFC4002400200000000000000007A
:1027A000FFFF0000000000000000400240023EFC6D
:1027B00001000000000000000000600080008000B8
:1027C0004000400020002000000000000000000049
:1027D00000000000000000000000000000000000F9
:1027E00000000000000000000000000000000000E9
:1027F00000000000000000000000000F80380FFE05
:10280000380F8038000000000000000000000000C9
:102810000000000000000100000600000C0000386D
:1028200000003100000600000C00003800003000FD
:10283000000000000000000061800067F807F980D8
:102840000061800061800061800061800067F8079E
:10285000F98000618000000000000000000001C05D
:10286000E003E0F00630080418081FFFFE040E081D
:102870000787F00381E000000000000001F000067F
:102880000C00040408060C7001F9C0000E00003BA7
:10289000E000EC18070808040C180003E000000032
:1028A0000001E00007F003F818041C0804170807EB
:1028B000E1D003C0E00023B0003C08002008000085
:1028C0001000000000000001000031000032000094
:1028D0001C000000000000000000000000000000DC
:1028E00000000000000000000000000000000000E8
:1028F00000000000000000007F0001FFC00780F022
:102900000C0018100004200002000000000000204D
:1029100000021000040C00180780F001FFC0007FC7
:1029200000000000000000000000000000000000A7
:10293000000000004200006600006600003C00004D
:10294000180003FFC0001800003C0000660000668D
:10295000000042000000000008000008000008001D
:1029600000080000080001FFC00008000008000087
:10297000080000080000080000000000000100003E
:102980003100003200001C000000000000000000C8
:102990000000000000000000000000000000000037
:1029A00008000008000008000008000008000008F7
:1029B00000000800000800000800000800000000F7
:1029C000000000000000000038000038000038005F
:1029D00000000000000000000000000000000000F7
:1029E0000000000000000000000600001C00007055
:1029F000000180000E0000380000C0000700001C2D
:102A00000000300000000000000000007F8001FF97
:102A1000E00380700600180400080400080600188F
:102A200003807001FFE0007F8000000000000000D4
:102A3000000001000801000801000803FFF807FF7B
:102A4000F800000800000800000800000000000076
:102A500000000001C03802C05804009804011804A6
:102A60000218040418061C1803F81801E0F8000006
:102A70000000000000000001C0E003C0F0040008F6
:102A800004080804080806180803F41801E7F00011
:102A900001E0000000000000000000000300000D45
:102AA0000000110000610000810803010807FFF821
:102AB0000FFFF800010800010800000000000000FE
:102AC00000E007FCD00608080610080610080610EB
:102AD00008061838060FF00607C0000000000000C6
:102AE000000000003F8001FFE0038430020818046A
:102AF0001008041008041008071810030FF000074E
:102B0000C000000000000000000003C0000700003B
:102B10000600000600F80607F806180006E00007A1
:102B2000000006000000000000000001E1E003F7E3
:102B3000F0063410041808041808040C08040C08E3
:102B400006161803F3F001C1E000000000000000C9
:102B5000F80003FC300306380402080402080402EB
:102B6000080404100308F001FFC0007F000000000B
:102B70000000000000000000000000000000000055
:102B8000703800703800703800000000000000004D
:102B90000000000000000000000000000000000035
:102BA00000000000301A00301C000000000000008F
:102BB000000000000000000000000000000000080D
:102BC000000014000022000041000080800100404D
:102BD00002002004001008000800000000000000AF
:102BE000210000210000210000210000210000211F
:102BF0000000210000210000210000210000000051
:102C0000000000000000080008040010020020017D
:102C100000400080800041000022000014000008F5
:102C20000000000000000003C00004C00004000019
:102C3000080038080F380808380810000C30000762
:102C4000E00003C000000000000000003F8000FF23
:102C5000E0038070020F1006708804C088048308A7
:102C6000047F8802C09003012000FE40000008009D
:102C700000180001F8003E0801C20007020007E248
:102C80000000FE00001FC80001F800003800000826
:102C900004000807FFF807FFF80408080408080400
:102CA000080804080806180803F41801E7F00001F2
:102CB000E0000000000000003F8001FFE0038070A2
:102CC00002001804000804000804000804001006AC
:102CD00000200780C000000004000807FFF807FF7D
:102CE000F80400080400080400080400180200109A
:102CF00003807001FFE0007F8000000004000807EF
:102D0000FFF807FFF8040808040808040808040886
:102D100008043E08040008060018010060000000D6
:102D200004000807FFF807FFF80408080408000477
:102D30000800040800043E000600000600000180B0
:102D400000000000000000003F8001FFE0038070F1
:102D50000600180400080402080402080203F00731
:102D600083F000020000020004000807FFF807FFDC
:102D7000F804080800080000080000080000080027
:102D800004080807FFF807FFF80400080000000027
:102D9000000004000804000804000807FFF807FF0B
:102DA000F804000804000804000800000000000007
:102DB00000000000000600000700000104000104FC
:102DC000000104000307FFFE07FFFC0400000400ED
:102DD0000004000004000807FFF807FFF8040C08CF
:102DE000001800003E0004C7800503C80600F80470
:102DF000003804001800000804000807FFF807FF67
:102E0000F80400080000080000080000080000089E
:102E1000000008000018000060000000040008071F
:102E2000FFF807800807FC00007FC00003F80007D8
:102E3000C000780007800807FFF807FFF8040008C3
:102E400004000807FFF807000803C00000E00000C6
:102E50003800001E000007000001C00400F007FF5A
:102E6000F8040000000000007F8001FFE003807094
:102E700006001804000804000806001803003001CA
:102E8000FFE0007F8000000004000807FFF807FF54
:102E9000F80404080404000404000404000404000A
:102EA000060C0003F80001F0000000000000000024
:102EB0007F8001FFE0038070060088040088040022
:102EC000C806003C03003E01FFE6007F84000000CE
:102ED00004000807FFF807FFF804080804080004C6
:102EE0000C00040F00040BC00610F003F03801E0E2
:102EF0000800000800000001E0F803F03006301080
:102F0000041808041808040C08040C080206180227
:102F100007F00781E00000000180000600000400C7
:102F20000004000004000807FFF807FFF804000889
:102F300004000004000006000001800004000007F7
:102F4000FFE007FFF0040018000008000008000080
:102F50000800000800000804001007FFE00400005B
:102F600004000006000007E00007FE00041FE00068
:102F700001F80000380001E0043E0007C000060030
:102F80000004000004000007E00007FFC0041FF871
:102F90000007C007F80007FF80043FF80007C004DF
:102FA000F80007000004000000000004000806000C
:102FB0001807C07805F1C8003E00001F800463E8D0
:102FC0000780F8060018040008000000040000064E
:102FD000000007800007E008047C08001FF80007D5
:102FE000F800180804E008070000060000040000CC
:102FF0000000000100080600380400F80403E8049B
:103000000F08047C0805F00807C008070018040032
:103010006000000000000000000000000000000050
:103020000000003FFFFE20000220000220000220DE
:103030000002200002000000000000000000080064
:103040000007000000C0000038000006000001C0BA
:1030500000003000000E0000010000000000000031
:1030600000002000022000022000022000022000B8
:10307000023FFFFE00000000000000000000000012
:1030800000000000000000000008000010000030F8
:1030900000002000003000001000000800000000C8
:1030A000000000000000010000010000010000011C
:1030B000000001000001000001000001000001000B
:1030C00000010000010000010000000000000000FD
:1030D0000020000020000010000010000000000090
:1030E00000000000000000000000000000000000E0
:1030F00000F00019F8001B18002208002608002420
:1031000008002410003FF8001FF800000800001815
:1031100000000004000007FFF80FFFF0001818007F
:103120001008002008002008003018001FF0000FD1
:10313000C00000000000000007C0001FF0001830B1
:10314000002008002008002008003C08001C100097
:1031500000600000000000000000000007C0001F29
:10316000F000381800200800200800200804101083
:1031700007FFF80FFFF00000100000000000000043
:1031800000000007C0001FF00012300022180022CB
:1031900008002208003208001E10000E2000000067
:1031A00000000000200000200800200801FFF803B4
:1031B000FFF8062008042008042008072000030068
:1031C0000000000000000000000E000E6E001FF363
:1031D0000031B10020B10020B1003191001F130077
:1031E0002E1E00200E00300000000004000807FF23
:1031F000F80FFFF800100800200000200000200851
:10320000003FF8001FF80000080000000000000068
:103210000000002008002008002008063FF8063FB4
:10322000F80000080000080000080000000000008E
:103230000000000000000000030000030020010067
:103240002001002003063FFE063FFC0000000000B6
:103250000000000000000004000807FFF80FFFF85E
:10326000000188000300002FC00038F8002038005B
:10327000200800000800000000000000000004001A
:103280000804000804000807FFF80FFFF800000812
:1032900000000800000800000000000000200800F6
:1032A0003FF8003FF8001008002000003FF8003F02
:1032B000F8001008002000003FF8003FF800000868
:1032C000000000002008003FF8003FF80010080050
:1032D0001000002000002008003FF8001FF8000048
:1032E000080000000000000007C0000FF0001830C8
:1032F00000300800200800200800300800183000C6
:103300000FF00007C0000000000000002001003F97
:10331000FF003FFF001011002009002008002008D6
:10332000003038001FF0000FC00000000000000057
:1033300007C0001FF00038180020080020080020F7
:1033400009001011001FFF003FFF000001000000F6
:10335000002008002008002008003FF8003FF80087
:10336000080800100800200800200000300000308D
:1033700000000000000000000000000C78001E1893
:10338000003308002308002108002188002198004C
:1033900030F0003860000000000000002000002035
:1033A0000000200000FFF003FFF8002008002008C4
:1033B00000200800003000000000000000000000B5
:1033C0002000003FF0007FF8000018000008000017
:1033D00008002010003FF8007FF0000010000000FF
:1033E000000000002000003000003C00003F800092
:1033F00023F0000078000070002380003C000030C3
:1034000000002000002000003C00003FE00023F806
:103410000000E0002700003E00003FE00021F8002F
:1034200001E0003E00002000000000002008002015
:1034300008003838003E680027800003C8002CF8D8
:1034400000383800201800200800000000000000AC
:103450002000003003003C01003F830023EC00000B
:1034600070002380003C00002000002000000000CD
:103470000000000000000038080020380020F8009C
:1034800023E8002F88003E080038080020180000BC
:1034900070000000000000000000000000000000BC
:1034A0000000000008000014001FF7FC3000062098
:1034B000000200000000000000000000000000000A
:1034C00000000000000000000000FFFFFF000000FF
:1034D00000000000000000000000000000000000EC
:1034E00000002000023000061FF7FC001400000856
:1034F00000000000000000000000000000000000CC
:1035000000000018000060000040000040000020A3
:1035100000001000000800000400000400000C007F
:10352000001000003A0440101214328017161804DC
:1035300019021A7A030A0C0C15003E007000710182
:1035400072117309A20211007A207B1C7C287D3C39
:103550007E557F68807681808288838F849685A35C
:1035600086AF87C488D789E813E0000010000D00FB
:103570001420A505AB072475256326A59F78A068B0
:10358000A103A6DFA7DFA8F0A990AA9413E50E6116
:103590000F4B16021E27210222912907330B350BF0
:1035A000371D3871392A3C784D404E20695D6B409B
:1035B00074198D4F8E008F0090009100920096003C
:1035C0009A80B084B10CB20EB382B80A431444F0AE
:1035D000453446584728483A59885A885B445C67BE
:1035E0005D495E0E640465206605940495086C0AC6
:1035F0006D554F80508051005222535E5480090314
:103600006E116F9F5500564057800000000000006B
:1036100000000000000000000000000000000000AA
:10362000000000000000000000000000000000009A
:10363000000000000000000000000000000000008A
:10364000000000000000000000000000000000007A
:10365000000000000000000000000000000000006A
:10366000000000000000000000000000000000005A
:103670000000000000000000000000009C36000870
:103680000000002014000000C4010008B03600084B
:103690001400002034070000E00100080000FFFFD4
:1036A000000000000000000000000000000000001A
:040000050800018965
:00000001FF
